:020000040000FA
:04000000803114280F
:100008007E1480314E01161E0A280B2812280C1E59
:100018000E280F28122884312B2480317E100900E5
:1000280080311628BE30840081308500A0308600DB
:100038000030870048308431342480310630840011
:1000480082308500203086000130870048308431B6
:1000580034248031FB01FC0120308400003085000D
:10006800323084313A2480317E1040018331CE2BE6
:10007800400150080E06031942284328BD298E1C4A
:1000880046284728C4280E1D4A284B28C428D801CA
:10009800D90140015808D2000130D235FF3E031D76
:1000A80051285235A03E86008701403FD300413F8A
:1000B800D400423FD500433FD6005808D70001304E
:1000C800D735FF3E031D64285735383E8600870123
:1000D8005308C03F5408C13F5508C23F5608C33FA4
:1000E8005808D2000130D235FF3E031D772852351B
:1000F800503E860001308700403FD300413FD40086
:10010800423FD500433FD6005808D7000130D735C5
:10011800FF3E031D8B285735203E86008701530874
:10012800C03F5408C13F5508C23F5608C33F01307D
:10013800D8070030D93D5908803AD20080305202A1
:10014800031DA82806305802031CAB28AC284D28EC
:100158000130F0000030F10053304001D200520865
:10016800F20082318D2280310130F0000030F10040
:100178005330F2000030F30082314E228031902952
:100188008E18C728C8282929DA01DB0140015A0836
:10019800D2000130D235FF3E031DCE285235D03E65
:1001A80086008701403FD300413FD400423FD5003D
:1001B800433FD6005A08D7000130D735FF3E031D0C
:1001C800E1285735383E860087015308C03F540858
:1001D800C13F5508C23F5608C33F5A08D2000130F4
:1001E800D235FF3E031DF4285235B83E86008701FC
:1001F800403FD300413FD400423FD500433FD600A3
:100208005A08D7000130D735FF3E031D0729573557
:10021800203E860087015308C03F5408C13F550857
:10022800C23F5608C33F0130DA070030DB3D5B08A8
:10023800803AD20080305202031D242906305A0227
:10024800031C27292829CA28AC280E192C292D294E
:100258009029DC01DD0140015C08D2000130D23573
:10026800FF3E031D33295235383E86000130870092
:10027800403FD300413FD400423FD500433FD60022
:100288005C08D7000130D735FF3E031D4729573595
:10029800383E860087015308C03F5408C13F5508BF
:1002A800C23F5608C33F5C08D2000130D235FF3E3A
:1002B800031D5A295235203E860001308700403FF1
:1002C800D300413FD400423FD500433FD6005C08ED
:1002D800D7000130D735FF3E031D6E295735203E24
:1002E800860087015308C03F5408C13F5508C23FE4
:1002F8005608C33F0130DC070030DD3D5D08803A19
:10030800D20080305202031D8B2906305C02031C88
:100318008E298F292F29AC288231FE228031013085
:10032800F0000030F1004C304001D2005208F200D9
:1003380082318D22803140018C1DA329A429B7293F
:100348005103031DA829A929B7298231CB2280315D
:100358000130F0000030F1004C30F2000030F300C2
:1003680082314E22803140010E08D2005208D0005E
:10037800000008003034003437340034C934803485
:100388000034083442344E3400340034B334043476
:10039800003400342C348034AC3400340534003458
:1003A80058340034583401342F34003491348134B3
:1003B8000034083442345E3400341834B33404341E
:1003C800003400343C3482348C3400340534003436
:1003D800583400349834803438340034C934803484
:1003E8000034083442344E3400340034B334043416
:1003F800003400342C348034AC34003405340034F8
:1004080058340034583400342D3400349134813455
:100418000034083442345E3400341834B3340434BD
:10042800003400343C3482348C34003405340034D5
:1004380058340034083480342F340034293480345C
:100448000034083442344E3400340034B3340434B5
:10045800003400342C348034AC3400340534003497
:1004680058340034883481342E3400349134813443
:100478000034083442345E3400341834B33404345D
:10048800003400343C3482348C3400340534003475
:1004980058340034400199120032F501F6017C2AE3
:1004A80003104001991E031403185B2A5E2A4001B9
:1004B8009916602A40019912533072067304031D7D
:1004C800662A672A702A1130F4003A30890B6A2AA2
:1004D800F40B6A2A0032782AA330F4005530890BCD
:1004E800732AF40B732A00000130F5070030F63D3B
:1004F8007608803AF4007108803A7402031D862A4F
:1005080070087502031C892A8A2A542A4001991204
:100518000800400119120032F401F501BA2A03104B
:100528004001191E031403189A2A9D2A400119161E
:100538009F2A4001191253307206031DA42AA52AC6
:10054800AE2A1130F3003A30890BA82AF30BA82AF7
:100558000032B62AA330F3005530890BB12AF30BC9
:10056800B12A00000130F4070030F53D7508803AE3
:10057800F3007108803A7302031DC42A70087402DC
:10058800031CC72AC82A932A4001191208000530FB
:10059800F7000030F80040011A1000327708F60022
:1005A8000130F635FF3E031DD52A7635203E8600FC
:1005B8008701403FF000413FF100423FF200433FD6
:1005C800F30083315E23823140011A140032400166
:1005D8001A100032400118100032FF30F707FF30C0
:1005E800F83DF81FF82AF92ACF2A2930890BFA2A68
:1005F800003208000530F7000030F80040011811FB
:1006080000327708F6000130F635FF3E031D082B4F
:100618007635383E86008701403FF000413FF100C3
:10062800423FF200433FF30083315E2382314001B1
:10063800181500324001181100324001181000321C
:10064800FF30F707FF30F83DF81F2B2B2C2B022B20
:100658002930890B2D2B003208004001980199019F
:100668009A01283092009301FE309400F8307E0100
:10067800CE00C301B801C401B901CF01BA01C50157
:10068800D0013730BB00F030C600FF30D1003F301A
:10069800BC00F030C700FF30D200BF12BE16BD123A
:1006A8005530F0000430F1008431402483314E018C
:1006B800161608001F30F4000030F500F31B652BF8
:1006C800682B40010C146A2B40010C1000004001FB
:1006D800981400004001981000000130F035F10D29
:1006E800F20DF30D890B722BFF30F407FF30F53D47
:1006F800F51F7F2B802B622B080040018C19852B5E
:10070800862B912B5103031D8A2B8B2B912B833125
:10071800F12383314001D101A02B8C1D942B952B03
:10072800A02B5108031D992B9A2BA02B8231CB2289
:1007380083314001D101D10A080040015103031D52
:10074800A62BA72BB72B8C1AAA2BAB2BAF2B83313D
:10075800E2238331B72B8C1EB22BB32BB72B8331FB
:10076800F1238331FC0108004001D001FC018C1900
:10077800BE2BBF2BC22BD101D10ACB2B8C1DC52B75
:10078800C62BCB2B8331F12383314001D1011912C0
:100798009912080084310E2483318B170B1783318B
:1007A800B823833180313C208331833181238331E5
:1007B8008331A1238331D62B8031142884314524F9
:1007C80083312930890BE62B003284314F24833161
:1007D8002930890BED2B00320800843152248331F3
:1007E8002930890BF52B003284314A248331293092
:1007F800890BFC2B0032080079087A040319052CB0
:10080800062C0B2C7A088A0079080A0084317E01AC
:10081800BF12080084311824843183313123843194
:1008280084312224843108004F01960197019801F0
:1008380099019A019B019C019D01080062305101B8
:100848008D008F01910102309300920108007E0112
:10085800BF1E2F2C302C332C843100248431080007
:10086800FE0012001E00FE0B352C003464008001CF
:100878000131890B3B2C00347108FA007008F9002B
:100888000800400199171913003208004001191790
:100898009913003208004001181608004001181288
:0408A800080008003C
:020000040001F9
:0A000E00EC3FFE3F9F3FFF1FFF3F46
:00000001FF
